{
  "contractName": "SimpleBank",
  "abi": [
    {
      "inputs": [],
      "payable": true,
      "stateMutability": "payable",
      "type": "constructor"
    },
    {
      "anonymous": false,
      "inputs": [
        {
          "indexed": true,
          "internalType": "address",
          "name": "accountAddress",
          "type": "address"
        },
        {
          "indexed": false,
          "internalType": "uint256",
          "name": "amount",
          "type": "uint256"
        }
      ],
      "name": "LogDepositMade",
      "type": "event"
    },
    {
      "constant": true,
      "inputs": [],
      "name": "owner",
      "outputs": [
        {
          "internalType": "address",
          "name": "",
          "type": "address"
        }
      ],
      "payable": false,
      "stateMutability": "view",
      "type": "function"
    },
    {
      "constant": false,
      "inputs": [],
      "name": "enroll",
      "outputs": [
        {
          "internalType": "uint256",
          "name": "",
          "type": "uint256"
        }
      ],
      "payable": false,
      "stateMutability": "nonpayable",
      "type": "function"
    },
    {
      "constant": false,
      "inputs": [],
      "name": "deposit",
      "outputs": [
        {
          "internalType": "uint256",
          "name": "",
          "type": "uint256"
        }
      ],
      "payable": true,
      "stateMutability": "payable",
      "type": "function"
    },
    {
      "constant": false,
      "inputs": [
        {
          "internalType": "uint256",
          "name": "withdrawAmount",
          "type": "uint256"
        }
      ],
      "name": "withdraw",
      "outputs": [
        {
          "internalType": "uint256",
          "name": "remainingBal",
          "type": "uint256"
        }
      ],
      "payable": true,
      "stateMutability": "payable",
      "type": "function"
    },
    {
      "constant": true,
      "inputs": [],
      "name": "balance",
      "outputs": [
        {
          "internalType": "uint256",
          "name": "",
          "type": "uint256"
        }
      ],
      "payable": false,
      "stateMutability": "view",
      "type": "function"
    },
    {
      "constant": true,
      "inputs": [],
      "name": "depositsBalance",
      "outputs": [
        {
          "internalType": "uint256",
          "name": "",
          "type": "uint256"
        }
      ],
      "payable": false,
      "stateMutability": "view",
      "type": "function"
    }
  ],
  "bytecode": "0x60806040526801a055690d9db800003414610065576040517f08c379a00000000000000000000000000000000000000000000000000000000081526004018080602001828103825260218152602001806105f16021913960400191505060405180910390fd5b33600260006101000a81548173ffffffffffffffffffffffffffffffffffffffff021916908373ffffffffffffffffffffffffffffffffffffffff16021790555060008060006101000a81548160ff021916908360ff160217905550610521806100d06000396000f3fe6080604052600436106100555760003560e01c8063138fbe711461005a5780632e1a7d4d146100855780638da5cb5b146100c7578063b69ef8a81461011e578063d0e30db014610149578063e65f2a7e14610167575b600080fd5b34801561006657600080fd5b5061006f610192565b6040518082815260200191505060405180910390f35b6100b16004803603602081101561009b57600080fd5b810190808035906020019092919050505061019a565b6040518082815260200191505060405180910390f35b3480156100d357600080fd5b506100dc6102be565b604051808273ffffffffffffffffffffffffffffffffffffffff1673ffffffffffffffffffffffffffffffffffffffff16815260200191505060405180910390f35b34801561012a57600080fd5b506101336102e4565b6040518082815260200191505060405180910390f35b61015161032b565b6040518082815260200191505060405180910390f35b34801561017357600080fd5b5061017c61040d565b6040518082815260200191505060405180910390f35b600047905090565b6000600160003373ffffffffffffffffffffffffffffffffffffffff1673ffffffffffffffffffffffffffffffffffffffff1681526020019081526020016000205482116102775781600160003373ffffffffffffffffffffffffffffffffffffffff1673ffffffffffffffffffffffffffffffffffffffff168152602001908152602001600020600082825403925050819055503373ffffffffffffffffffffffffffffffffffffffff166108fc839081150290604051600060405180830381858888f19350505050158015610275573d6000803e3d6000fd5b505b600160003373ffffffffffffffffffffffffffffffffffffffff1673ffffffffffffffffffffffffffffffffffffffff168152602001908152602001600020549050919050565b600260009054906101000a900473ffffffffffffffffffffffffffffffffffffffff1681565b6000600160003373ffffffffffffffffffffffffffffffffffffffff1673ffffffffffffffffffffffffffffffffffffffff16815260200190815260200160002054905090565b600034600160003373ffffffffffffffffffffffffffffffffffffffff1673ffffffffffffffffffffffffffffffffffffffff168152602001908152602001600020600082825401925050819055503373ffffffffffffffffffffffffffffffffffffffff167fa8126f7572bb1fdeae5b5aa9ec126438b91f658a07873f009d041ae690f3a193346040518082815260200191505060405180910390a2600160003373ffffffffffffffffffffffffffffffffffffffff1673ffffffffffffffffffffffffffffffffffffffff16815260200190815260200160002054905090565b600060036000809054906101000a900460ff1660ff1610156104a75760008081819054906101000a900460ff168092919060010191906101000a81548160ff021916908360ff16021790555050678ac7230489e80000600160003373ffffffffffffffffffffffffffffffffffffffff1673ffffffffffffffffffffffffffffffffffffffff168152602001908152602001600020819055505b600160003373ffffffffffffffffffffffffffffffffffffffff1673ffffffffffffffffffffffffffffffffffffffff1681526020019081526020016000205490509056fea265627a7a723158204cb9ea487c6a514e1c5314476483dcd7441167bbce8c1455149f07c09ce5379364736f6c63430005100032333020657468657220696e697469616c2066756e64696e67207265717569726564",
  "source": "pragma solidity >=0.4.21 <0.9.0;\n\ncontract SimpleBank {\n    uint8 private clientCount;\n    mapping (address => uint) private balances;\n    address public owner;\n\n  // Log the event about a deposit being made by an address and its amount\n    event LogDepositMade(address indexed accountAddress, uint amount);\n\n    // Constructor is \"payable\" so it can receive the initial funding of 30, \n    // required to reward the first 3 clients\n    constructor() public payable {\n        require(msg.value == 30 ether, \"30 ether initial funding required\");\n        /* Set the owner to the creator of this contract */\n        owner = msg.sender;\n        clientCount = 0;\n    }\n\n    // @notice Enroll a customer with the bank, \n    // giving the first 3 of them 10 ether as reward\n    // @return The balance of the user after enrolling\n    function enroll() public returns (uint) {\n        if (clientCount < 3) {\n            clientCount++;\n            balances[msg.sender] = 10 ether;\n        }\n        return balances[msg.sender];\n    }\n\n    // @notice Deposit ether into bank, requires method is \"payable\"\n    // @return The balance of the user after the deposit is made\n    function deposit() public payable returns (uint) {\n        balances[msg.sender] += msg.value;\n        emit LogDepositMade(msg.sender, msg.value);\n        return balances[msg.sender];\n    }\n\n    // @notice Withdraw ether from bank\n    // @return The balance remaining for the user\n    function withdraw(uint withdrawAmount) public payable returns (uint remainingBal) {\n        // Check enough balance available, otherwise just return balance\n        if (withdrawAmount <= balances[msg.sender]) {\n            balances[msg.sender] -= withdrawAmount;\n            msg.sender.transfer(withdrawAmount);\n        }\n        return balances[msg.sender];\n    }\n\n    // @notice Just reads balance of the account requesting, so \"constant\"\n    // @return The balance of the user\n    function balance() public view returns (uint) {\n        return balances[msg.sender];\n    }\n\n    // @return The balance of the Simple Bank contract\n    function depositsBalance() public view returns (uint) {\n        return address(this).balance;\n    }\n}\n",
  "sourcePath": "F:\\University Education\\Master course\\block chain\\hw\\04\\bankHW\\simple_bank-master\\contracts\\SimpleBank.sol",
  "compiler": {
    "name": "solc",
    "version": "0.5.16+commit.9c3226ce.Emscripten.clang"
  },
  "schemaVersion": "3.4.11",
  "updatedAt": "2023-01-06T19:48:08.878Z",
  "devdoc": {
    "methods": {}
  },
  "userdoc": {
    "methods": {}
  }
}